{
  "transactions": [
    {
      "hash": "0xfb8784f742ca69bbae4e7244175990e7470668c1906c9d044683e0a1b037da9c",
      "transactionType": "CALL",
      "contractName": null,
      "contractAddress": "0xfa12b0c5af2d60a4748f4038163854e8faad26d8",
      "function": "initSourceChainParamsForCCIP(address,address,uint64)",
      "arguments": [
        "0x8c30c02cbDD4264F458a2083D3CC188c0fd0c3F5",
        "0x74eA849Ba30b0A8eA2B749Bb662516935331492C",
        "16015286601757825753"
      ],
      "transaction": {
        "from": "0xf101cefc8aece4c5d2672d54fd7392f8255052ed",
        "to": "0xfa12b0c5af2d60a4748f4038163854e8faad26d8",
        "gas": "0xaa4c",
        "value": "0x0",
        "input": "0x9979ccf50000000000000000000000008c30c02cbdd4264f458a2083d3cc188c0fd0c3f500000000000000000000000074ea849ba30b0a8ea2b749bb662516935331492c000000000000000000000000000000000000000000000000de41ba4fc9d91ad9",
        "nonce": "0x6",
        "chainId": "0xa869"
      },
      "additionalContracts": [],
      "isFixedGasLimit": false
    }
  ],
  "receipts": [
    {
      "status": "0x1",
      "cumulativeGasUsed": "0x9d4fd",
      "logs": [],
      "logsBloom": "0x00000000000000000000000000000000000000000000000000000000000000000000000000000000000000000000000000000000000000000000000000000000000000000000000000000000000000000000000000000000000000000000000000000000000000000000000000000000000000000000000000000000000000000000000000000000000000000000000000000000000000000000000000000000000000000000000000000000000000000000000000000000000000000000000000000000000000000000000000000000000000000000000000000000000000000000000000000000000000000000000000000000000000000000000000000000",
      "type": "0x2",
      "transactionHash": "0xfb8784f742ca69bbae4e7244175990e7470668c1906c9d044683e0a1b037da9c",
      "transactionIndex": "0x2",
      "blockHash": "0x5569d9d9967ef2b2b1320ad4458ef67ff77779a56c184f04796f707b40490ecc",
      "blockNumber": "0x280799e",
      "gasUsed": "0x7472",
      "effectiveGasPrice": "0x3d55fe37",
      "from": "0xf101cefc8aece4c5d2672d54fd7392f8255052ed",
      "to": "0xfa12b0c5af2d60a4748f4038163854e8faad26d8",
      "contractAddress": null
    }
  ],
  "libraries": [],
  "pending": [],
  "returns": {},
  "timestamp": 1750161274,
  "chain": 43113,
  "commit": "b1c390a"
}