{
  "transactions": [
    {
      "hash": "0x1adef4c265d56ecb349b7a3979d16c0e1dc9ddc290d7c52e4dbfb05f9b3dc5a3",
      "transactionType": "CALL",
      "contractName": null,
      "contractAddress": "0xd4aa953485ef4f1a916e42b9350ab510f0920465",
      "function": "setSourceChainParams(address,uint256,uint64,address,uint64)",
      "arguments": [
        "0x5425890298A76a5fde71c00E1554EBb843aB41d2",
        "11155111",
        "16015286601757825753",
        "0xd4aa953485eF4f1A916e42b9350Ab510f0920465",
        "14767482510784806043"
      ],
      "transaction": {
        "from": "0xccc7465bb0b21a37d01c7f079a23712086b2ca95",
        "to": "0xd4aa953485ef4f1a916e42b9350ab510f0920465",
        "gas": "0x28c0e",
        "value": "0x0",
        "input": "0xb60010460000000000000000000000005425890298a76a5fde71c00e1554ebb843ab41d20000000000000000000000000000000000000000000000000000000000aa36a7000000000000000000000000000000000000000000000000de41ba4fc9d91ad9000000000000000000000000d4aa953485ef4f1a916e42b9350ab510f0920465000000000000000000000000000000000000000000000000ccf0a31a221f3c9b",
        "nonce": "0x3",
        "chainId": "0xa869"
      },
      "additionalContracts": [],
      "isFixedGasLimit": false
    }
  ],
  "receipts": [
    {
      "status": "0x1",
      "cumulativeGasUsed": "0x201d19",
      "logs": [],
      "logsBloom": "0x00000000000000000000000000000000000000000000000000000000000000000000000000000000000000000000000000000000000000000000000000000000000000000000000000000000000000000000000000000000000000000000000000000000000000000000000000000000000000000000000000000000000000000000000000000000000000000000000000000000000000000000000000000000000000000000000000000000000000000000000000000000000000000000000000000000000000000000000000000000000000000000000000000000000000000000000000000000000000000000000000000000000000000000000000000000",
      "type": "0x2",
      "transactionHash": "0x1adef4c265d56ecb349b7a3979d16c0e1dc9ddc290d7c52e4dbfb05f9b3dc5a3",
      "transactionIndex": "0xb",
      "blockHash": "0x198660da978669a1d11c52c796d33199932a8b4f108a1f2154b1073a315e7a61",
      "blockNumber": "0x2877d5f",
      "gasUsed": "0x1bdda",
      "effectiveGasPrice": "0x62",
      "from": "0xccc7465bb0b21a37d01c7f079a23712086b2ca95",
      "to": "0xd4aa953485ef4f1a916e42b9350ab510f0920465",
      "contractAddress": null
    }
  ],
  "libraries": [],
  "pending": [],
  "returns": {},
  "timestamp": 1750857757,
  "chain": 43113,
  "commit": "0a70c56"
}