{
  "transactions": [
    {
      "hash": "0xe56f4cde29517e5b81d9d6c2c91ef57ac8f05e95574738e1cd4a1ccd88ecd361",
      "transactionType": "CALL",
      "contractName": null,
      "contractAddress": "0x8828210bcdc39fb6a6ca01861970825f317f58d6",
      "function": "setSourceChainParams(address,uint256,uint64,address,uint64)",
      "arguments": [
        "0xb8F551189a9E15988C05EA29d4e3Cf8e39eD6BFE",
        "11155111",
        "16015286601757825753",
        "0x6605c95b59fC9cC3D4deF033ae9a950996CAAd4c",
        "14767482510784806043"
      ],
      "transaction": {
        "from": "0xccc7465bb0b21a37d01c7f079a23712086b2ca95",
        "to": "0x8828210bcdc39fb6a6ca01861970825f317f58d6",
        "gas": "0xe54d",
        "value": "0x0",
        "input": "0xb6001046000000000000000000000000b8f551189a9e15988c05ea29d4e3cf8e39ed6bfe0000000000000000000000000000000000000000000000000000000000aa36a7000000000000000000000000000000000000000000000000de41ba4fc9d91ad90000000000000000000000006605c95b59fc9cc3d4def033ae9a950996caad4c000000000000000000000000000000000000000000000000ccf0a31a221f3c9b",
        "nonce": "0x1c",
        "chainId": "0xa869"
      },
      "additionalContracts": [],
      "isFixedGasLimit": false
    }
  ],
  "receipts": [
    {
      "status": "0x1",
      "cumulativeGasUsed": "0x5071a",
      "logs": [],
      "logsBloom": "0x00000000000000000000000000000000000000000000000000000000000000000000000000000000000000000000000000000000000000000000000000000000000000000000000000000000000000000000000000000000000000000000000000000000000000000000000000000000000000000000000000000000000000000000000000000000000000000000000000000000000000000000000000000000000000000000000000000000000000000000000000000000000000000000000000000000000000000000000000000000000000000000000000000000000000000000000000000000000000000000000000000000000000000000000000000000",
      "type": "0x2",
      "transactionHash": "0xe56f4cde29517e5b81d9d6c2c91ef57ac8f05e95574738e1cd4a1ccd88ecd361",
      "transactionIndex": "0x1",
      "blockHash": "0x38014dd0b1b3d6f844e81316abbdef93e77a53406159a18dfdea4305d7dcc1e7",
      "blockNumber": "0x28b59d5",
      "gasUsed": "0x9cca",
      "effectiveGasPrice": "0x9d",
      "from": "0xccc7465bb0b21a37d01c7f079a23712086b2ca95",
      "to": "0x8828210bcdc39fb6a6ca01861970825f317f58d6",
      "contractAddress": null
    }
  ],
  "libraries": [],
  "pending": [],
  "returns": {},
  "timestamp": 1751199033,
  "chain": 43113,
  "commit": "246783e"
}