{
  "transactions": [
    {
      "hash": "0x4f1a5829e6a5bed2b14421e039c22b81b42b7b1b53ab3c05308e155a60510c6e",
      "transactionType": "CALL",
      "contractName": null,
      "contractAddress": "0x6605c95b59fc9cc3d4def033ae9a950996caad4c",
      "function": "setTargetChainParams(address,uint64,address)",
      "arguments": [
        "0xb8F551189a9E15988C05EA29d4e3Cf8e39eD6BFE",
        "14767482510784806043",
        "0x8828210BCdC39fB6A6cA01861970825F317F58d6"
      ],
      "transaction": {
        "from": "0xccc7465bb0b21a37d01c7f079a23712086b2ca95",
        "to": "0x6605c95b59fc9cc3d4def033ae9a950996caad4c",
        "gas": "0x10193",
        "value": "0x0",
        "input": "0xfc42a8cc000000000000000000000000b8f551189a9e15988c05ea29d4e3cf8e39ed6bfe000000000000000000000000000000000000000000000000ccf0a31a221f3c9b0000000000000000000000008828210bcdc39fb6a6ca01861970825f317f58d6",
        "nonce": "0xb9",
        "chainId": "0xaa36a7"
      },
      "additionalContracts": [],
      "isFixedGasLimit": false
    }
  ],
  "receipts": [
    {
      "status": "0x1",
      "cumulativeGasUsed": "0x182ad50",
      "logs": [],
      "logsBloom": "0x00000000000000000000000000000000000000000000000000000000000000000000000000000000000000000000000000000000000000000000000000000000000000000000000000000000000000000000000000000000000000000000000000000000000000000000000000000000000000000000000000000000000000000000000000000000000000000000000000000000000000000000000000000000000000000000000000000000000000000000000000000000000000000000000000000000000000000000000000000000000000000000000000000000000000000000000000000000000000000000000000000000000000000000000000000000",
      "type": "0x2",
      "transactionHash": "0x4f1a5829e6a5bed2b14421e039c22b81b42b7b1b53ab3c05308e155a60510c6e",
      "transactionIndex": "0xde",
      "blockHash": "0xa2a8d440c9b375d99842c6a2cfd51c5575869891adb106f907bf48078fcfc636",
      "blockNumber": "0x840e82",
      "gasUsed": "0xba7c",
      "effectiveGasPrice": "0x1fc4ee",
      "from": "0xccc7465bb0b21a37d01c7f079a23712086b2ca95",
      "to": "0x6605c95b59fc9cc3d4def033ae9a950996caad4c",
      "contractAddress": null
    }
  ],
  "libraries": [],
  "pending": [],
  "returns": {},
  "timestamp": 1751198857,
  "chain": 11155111,
  "commit": "246783e"
}