{
  "transactions": [
    {
      "hash": "0x446e39bd16aeb53eaae9935881a5056483afbe794c08bec65ba60ef0e1784df5",
      "transactionType": "CALL",
      "contractName": null,
      "contractAddress": "0xb8f551189a9e15988c05ea29d4e3cf8e39ed6bfe",
      "function": "approve(address,uint256)",
      "arguments": [
        "0x74eA849Ba30b0A8eA2B749Bb662516935331492C",
        "100000000000000000"
      ],
      "transaction": {
        "from": "0xf101cefc8aece4c5d2672d54fd7392f8255052ed",
        "to": "0xb8f551189a9e15988c05ea29d4e3cf8e39ed6bfe",
        "gas": "0xfa13",
        "value": "0x0",
        "input": "0x095ea7b300000000000000000000000074ea849ba30b0a8ea2b749bb662516935331492c000000000000000000000000000000000000000000000000016345785d8a0000",
        "nonce": "0x27",
        "chainId": "0xaa36a7"
      },
      "additionalContracts": [],
      "isFixedGasLimit": false
    },
    {
      "hash": "0x1a085552534057f138b8f4ef8be4b098128377979772f56b3bf3946c1e1ea2fb",
      "transactionType": "CALL",
      "contractName": null,
      "contractAddress": "0x74ea849ba30b0a8ea2b749bb662516935331492c",
      "function": "depositCollateral((address,uint256,uint256,address,address,bytes,bytes32))",
      "arguments": [
        "(0xb8F551189a9E15988C05EA29d4e3Cf8e39eD6BFE, 100000000000000000, 43113, 0x8c30c02cbDD4264F458a2083D3CC188c0fd0c3F5, 0xea2f3b9cdb2B68297441c176F38ac2ec3926e0b8, 0x, 0x0000000000000000000000000000000000000000000000000000000000000000)"
      ],
      "transaction": {
        "from": "0xf101cefc8aece4c5d2672d54fd7392f8255052ed",
        "to": "0x74ea849ba30b0a8ea2b749bb662516935331492c",
        "gas": "0x89075",
        "value": "0x0",
        "input": "0x0868a1d50000000000000000000000000000000000000000000000000000000000000020000000000000000000000000b8f551189a9e15988c05ea29d4e3cf8e39ed6bfe000000000000000000000000000000000000000000000000016345785d8a0000000000000000000000000000000000000000000000000000000000000000a8690000000000000000000000008c30c02cbdd4264f458a2083d3cc188c0fd0c3f5000000000000000000000000ea2f3b9cdb2b68297441c176f38ac2ec3926e0b800000000000000000000000000000000000000000000000000000000000000e000000000000000000000000000000000000000000000000000000000000000000000000000000000000000000000000000000000000000000000000000000000",
        "nonce": "0x28",
        "chainId": "0xaa36a7"
      },
      "additionalContracts": [],
      "isFixedGasLimit": false
    }
  ],
  "receipts": [
    {
      "status": "0x1",
      "cumulativeGasUsed": "0x179c8d4",
      "logs": [
        {
          "address": "0xb8f551189a9e15988c05ea29d4e3cf8e39ed6bfe",
          "topics": [
            "0x8c5be1e5ebec7d5bd14f71427d1e84f3dd0314c0f7b2291e5b200ac8c7c3b925",
            "0x000000000000000000000000f101cefc8aece4c5d2672d54fd7392f8255052ed",
            "0x00000000000000000000000074ea849ba30b0a8ea2b749bb662516935331492c"
          ],
          "data": "0x000000000000000000000000000000000000000000000000016345785d8a0000",
          "blockHash": "0x14e17edec1346d8cdbe42c4e48bb2d71dc996f3d190f45e3c294a97c4cd911b1",
          "blockNumber": "0x82bedc",
          "blockTimestamp": "0x68516070",
          "transactionHash": "0x446e39bd16aeb53eaae9935881a5056483afbe794c08bec65ba60ef0e1784df5",
          "transactionIndex": "0xad",
          "logIndex": "0x109",
          "removed": false
        }
      ],
      "logsBloom": "0x00000000000000004000100000000000000000000000000000000000000000000000400000000000000000000000200000000000000000000000000000200000000000000000000000000000000000000000000000000000000000000000000000000000000000000000000000000000000000000000000000000000000000000000000000000000000000000000000000000000000000000000000000000008020000000000000000000000000000000000000000000000000000000000000000000000008000000000000000000000000000000000000000000000000000000010000000000000000800000001000000000000020000000000000000000000",
      "type": "0x2",
      "transactionHash": "0x446e39bd16aeb53eaae9935881a5056483afbe794c08bec65ba60ef0e1784df5",
      "transactionIndex": "0xad",
      "blockHash": "0x14e17edec1346d8cdbe42c4e48bb2d71dc996f3d190f45e3c294a97c4cd911b1",
      "blockNumber": "0x82bedc",
      "gasUsed": "0xb50e",
      "effectiveGasPrice": "0x4d3a1a",
      "from": "0xf101cefc8aece4c5d2672d54fd7392f8255052ed",
      "to": "0xb8f551189a9e15988c05ea29d4e3cf8e39ed6bfe",
      "contractAddress": null
    },
    {
      "status": "0x1",
      "cumulativeGasUsed": "0x17ffc22",
      "logs": [
        {
          "address": "0xb8f551189a9e15988c05ea29d4e3cf8e39ed6bfe",
          "topics": [
            "0xddf252ad1be2c89b69c2b068fc378daa952ba7f163c4a11628f55a4df523b3ef",
            "0x000000000000000000000000f101cefc8aece4c5d2672d54fd7392f8255052ed",
            "0x00000000000000000000000074ea849ba30b0a8ea2b749bb662516935331492c"
          ],
          "data": "0x000000000000000000000000000000000000000000000000016345785d8a0000",
          "blockHash": "0x14e17edec1346d8cdbe42c4e48bb2d71dc996f3d190f45e3c294a97c4cd911b1",
          "blockNumber": "0x82bedc",
          "blockTimestamp": "0x68516070",
          "transactionHash": "0x1a085552534057f138b8f4ef8be4b098128377979772f56b3bf3946c1e1ea2fb",
          "transactionIndex": "0xae",
          "logIndex": "0x10a",
          "removed": false
        },
        {
          "address": "0x74ea849ba30b0a8ea2b749bb662516935331492c",
          "topics": [
            "0xf1c0dd7e9b98bbff859029005ef89b127af049cd18df1a8d79f0b7e019911e56",
            "0x000000000000000000000000f101cefc8aece4c5d2672d54fd7392f8255052ed",
            "0x000000000000000000000000b8f551189a9e15988c05ea29d4e3cf8e39ed6bfe"
          ],
          "data": "0x000000000000000000000000000000000000000000000000016345785d8a0000",
          "blockHash": "0x14e17edec1346d8cdbe42c4e48bb2d71dc996f3d190f45e3c294a97c4cd911b1",
          "blockNumber": "0x82bedc",
          "blockTimestamp": "0x68516070",
          "transactionHash": "0x1a085552534057f138b8f4ef8be4b098128377979772f56b3bf3946c1e1ea2fb",
          "transactionIndex": "0xae",
          "logIndex": "0x10b",
          "removed": false
        },
        {
          "address": "0x779877a7b0d9e8603169ddbd7836e478b4624789",
          "topics": [
            "0x8c5be1e5ebec7d5bd14f71427d1e84f3dd0314c0f7b2291e5b200ac8c7c3b925",
            "0x00000000000000000000000074ea849ba30b0a8ea2b749bb662516935331492c",
            "0x0000000000000000000000000bf3de8c5d3e8a2b34d2beeb17abfcebaf363a59"
          ],
          "data": "0x00000000000000000000000000000000000000000000000000741423384031d3",
          "blockHash": "0x14e17edec1346d8cdbe42c4e48bb2d71dc996f3d190f45e3c294a97c4cd911b1",
          "blockNumber": "0x82bedc",
          "blockTimestamp": "0x68516070",
          "transactionHash": "0x1a085552534057f138b8f4ef8be4b098128377979772f56b3bf3946c1e1ea2fb",
          "transactionIndex": "0xae",
          "logIndex": "0x10c",
          "removed": false
        },
        {
          "address": "0x779877a7b0d9e8603169ddbd7836e478b4624789",
          "topics": [
            "0xddf252ad1be2c89b69c2b068fc378daa952ba7f163c4a11628f55a4df523b3ef",
            "0x00000000000000000000000074ea849ba30b0a8ea2b749bb662516935331492c",
            "0x00000000000000000000000012492154714fbd28f28219f6fc4315d19de1025b"
          ],
          "data": "0x00000000000000000000000000000000000000000000000000741423384031d3",
          "blockHash": "0x14e17edec1346d8cdbe42c4e48bb2d71dc996f3d190f45e3c294a97c4cd911b1",
          "blockNumber": "0x82bedc",
          "blockTimestamp": "0x68516070",
          "transactionHash": "0x1a085552534057f138b8f4ef8be4b098128377979772f56b3bf3946c1e1ea2fb",
          "transactionIndex": "0xae",
          "logIndex": "0x10d",
          "removed": false
        },
        {
          "address": "0x779877a7b0d9e8603169ddbd7836e478b4624789",
          "topics": [
            "0x8c5be1e5ebec7d5bd14f71427d1e84f3dd0314c0f7b2291e5b200ac8c7c3b925",
            "0x00000000000000000000000074ea849ba30b0a8ea2b749bb662516935331492c",
            "0x0000000000000000000000000bf3de8c5d3e8a2b34d2beeb17abfcebaf363a59"
          ],
          "data": "0x0000000000000000000000000000000000000000000000000000000000000000",
          "blockHash": "0x14e17edec1346d8cdbe42c4e48bb2d71dc996f3d190f45e3c294a97c4cd911b1",
          "blockNumber": "0x82bedc",
          "blockTimestamp": "0x68516070",
          "transactionHash": "0x1a085552534057f138b8f4ef8be4b098128377979772f56b3bf3946c1e1ea2fb",
          "transactionIndex": "0xae",
          "logIndex": "0x10e",
          "removed": false
        },
        {
          "address": "0x12492154714fbd28f28219f6fc4315d19de1025b",
          "topics": [
            "0xd0c3c799bf9e2639de44391e7f524d229b2b55f5b1ea94b2bf7da42f7243dddd"
          ],
          "data": "0x0000000000000000000000000000000000000000000000000000000000000020000000000000000000000000000000000000000000000000de41ba4fc9d91ad900000000000000000000000074ea849ba30b0a8ea2b749bb662516935331492c000000000000000000000000fa12b0c5af2d60a4748f4038163854e8faad26d800000000000000000000000000000000000000000000000000000000000029ce0000000000000000000000000000000000000000000000000000000000030d4000000000000000000000000000000000000000000000000000000000000000000000000000000000000000000000000000000000000000000000000000000001000000000000000000000000779877a7b0d9e8603169ddbd7836e478b462478900000000000000000000000000000000000000000000000000741423384031d300000000000000000000000000000000000000000000000000000000000001a000000000000000000000000000000000000000000000000000000000000003600000000000000000000000000000000000000000000000000000000000000380a6ad659fdaec4d2d6b7c13f68284e8f2b7b74a86f9b867b7b92ede05a01031f000000000000000000000000000000000000000000000000000000000000001a00000000000000000000000000000000000000000000000000000000000000020000000000000000000000000ea2f3b9cdb2b68297441c176f38ac2ec3926e0b8000000000000000000000000b8f551189a9e15988c05ea29d4e3cf8e39ed6bfe0000000000000000000000008c30c02cbdd4264f458a2083d3cc188c0fd0c3f5000000000000000000000000000000000000000000000000016345785d8a000000000000000000000000000000000000000000000000000000000000000000000000000000000000000000000000000000000000000000000000000000aa36a7000000000000000000000000000000000000000000000000000000000000a8690000000000000000000000000000000000000000000000000000000000000000000000000000000000000000f101cefc8aece4c5d2672d54fd7392f8255052ed00000000000000000000000000000000000000000000000000000000000000000000000000000000000000000000000000000000000000000000000000000160000000000000000000000000000000000000000000000000000000000000000000000000000000000000000000000000000000000000000000000000000000000000000000000000000000000000000000000000000000000000000000000000",
          "blockHash": "0x14e17edec1346d8cdbe42c4e48bb2d71dc996f3d190f45e3c294a97c4cd911b1",
          "blockNumber": "0x82bedc",
          "blockTimestamp": "0x68516070",
          "transactionHash": "0x1a085552534057f138b8f4ef8be4b098128377979772f56b3bf3946c1e1ea2fb",
          "transactionIndex": "0xae",
          "logIndex": "0x10f",
          "removed": false
        }
      ],
      "logsBloom": "0x00000004000040004000100000000000000400000000000000000000000000000000400000000040000000000000200800000000000000000000000000200000000000000000000000000008000000000000000000000000000000000100020000000000000100000800000400000000800008000000000000000010000000000000000008000000000000000000900000000000000000000000000000000008020000000000080400000000000000000000000000000000000100000000000000000002008000000000000000000000010000000000000180000000000000200010000100000000000800000001000004000000020000000000000000000000",
      "type": "0x2",
      "transactionHash": "0x1a085552534057f138b8f4ef8be4b098128377979772f56b3bf3946c1e1ea2fb",
      "transactionIndex": "0xae",
      "blockHash": "0x14e17edec1346d8cdbe42c4e48bb2d71dc996f3d190f45e3c294a97c4cd911b1",
      "blockNumber": "0x82bedc",
      "gasUsed": "0x6334e",
      "effectiveGasPrice": "0x4d3a1a",
      "from": "0xf101cefc8aece4c5d2672d54fd7392f8255052ed",
      "to": "0x74ea849ba30b0a8ea2b749bb662516935331492c",
      "contractAddress": null
    }
  ],
  "libraries": [],
  "pending": [],
  "returns": {},
  "timestamp": 1750163569,
  "chain": 11155111,
  "commit": "b1c390a"
}