{
  "transactions": [
    {
      "hash": "0x3af565b99ba14701157fe6cfe0e347264342fa28b0fae6902bddc27a44ee4a32",
      "transactionType": "CALL",
      "contractName": null,
      "contractAddress": "0xd4aa953485ef4f1a916e42b9350ab510f0920465",
      "function": "setTargetChainParams(address,uint64,address)",
      "arguments": [
        "0x4FE11290797DC5Cc82F20B950C263B0A2aCb1764",
        "14767482510784806043",
        "0xd4aa953485eF4f1A916e42b9350Ab510f0920465"
      ],
      "transaction": {
        "from": "0xccc7465bb0b21a37d01c7f079a23712086b2ca95",
        "to": "0xd4aa953485ef4f1a916e42b9350ab510f0920465",
        "gas": "0x10193",
        "value": "0x0",
        "input": "0xfc42a8cc0000000000000000000000004fe11290797dc5cc82f20b950c263b0a2acb1764000000000000000000000000000000000000000000000000ccf0a31a221f3c9b000000000000000000000000d4aa953485ef4f1a916e42b9350ab510f0920465",
        "nonce": "0x4",
        "chainId": "0xaa36a7"
      },
      "additionalContracts": [],
      "isFixedGasLimit": false
    }
  ],
  "receipts": [
    {
      "status": "0x1",
      "cumulativeGasUsed": "0x1353a4f",
      "logs": [],
      "logsBloom": "0x00000000000000000000000000000000000000000000000000000000000000000000000000000000000000000000000000000000000000000000000000000000000000000000000000000000000000000000000000000000000000000000000000000000000000000000000000000000000000000000000000000000000000000000000000000000000000000000000000000000000000000000000000000000000000000000000000000000000000000000000000000000000000000000000000000000000000000000000000000000000000000000000000000000000000000000000000000000000000000000000000000000000000000000000000000000",
      "type": "0x2",
      "transactionHash": "0x3af565b99ba14701157fe6cfe0e347264342fa28b0fae6902bddc27a44ee4a32",
      "transactionIndex": "0x1af",
      "blockHash": "0xd678ab3e8c38c7ded868bfe09d6d617248121d16db2f70038ac4e1ff59c3019e",
      "blockNumber": "0x839fe5",
      "gasUsed": "0xba7c",
      "effectiveGasPrice": "0x1eecfadfe",
      "from": "0xccc7465bb0b21a37d01c7f079a23712086b2ca95",
      "to": "0xd4aa953485ef4f1a916e42b9350ab510f0920465",
      "contractAddress": null
    }
  ],
  "libraries": [],
  "pending": [],
  "returns": {},
  "timestamp": 1750857720,
  "chain": 11155111,
  "commit": "0a70c56"
}